{
  "_format": "hh-sol-artifact-1",
  "contractName": "QuizScore",
  "sourceName": "contracts/QuizScore.sol",
  "abi": [
    {
      "inputs": [
        {
          "internalType": "address",
          "name": "initialOwner",
          "type": "address"
        }
      ],
      "stateMutability": "nonpayable",
      "type": "constructor"
    },
    {
      "inputs": [
        {
          "internalType": "address",
          "name": "sender",
          "type": "address"
        },
        {
          "internalType": "uint256",
          "name": "balance",
          "type": "uint256"
        },
        {
          "internalType": "uint256",
          "name": "needed",
          "type": "uint256"
        },
        {
          "internalType": "uint256",
          "name": "tokenId",
          "type": "uint256"
        }
      ],
      "name": "ERC1155InsufficientBalance",
      "type": "error"
    },
    {
      "inputs": [
        {
          "internalType": "address",
          "name": "approver",
          "type": "address"
        }
      ],
      "name": "ERC1155InvalidApprover",
      "type": "error"
    },
    {
      "inputs": [
        {
          "internalType": "uint256",
          "name": "idsLength",
          "type": "uint256"
        },
        {
          "internalType": "uint256",
          "name": "valuesLength",
          "type": "uint256"
        }
      ],
      "name": "ERC1155InvalidArrayLength",
      "type": "error"
    },
    {
      "inputs": [
        {
          "internalType": "address",
          "name": "operator",
          "type": "address"
        }
      ],
      "name": "ERC1155InvalidOperator",
      "type": "error"
    },
    {
      "inputs": [
        {
          "internalType": "address",
          "name": "receiver",
          "type": "address"
        }
      ],
      "name": "ERC1155InvalidReceiver",
      "type": "error"
    },
    {
      "inputs": [
        {
          "internalType": "address",
          "name": "sender",
          "type": "address"
        }
      ],
      "name": "ERC1155InvalidSender",
      "type": "error"
    },
    {
      "inputs": [
        {
          "internalType": "address",
          "name": "operator",
          "type": "address"
        },
        {
          "internalType": "address",
          "name": "owner",
          "type": "address"
        }
      ],
      "name": "ERC1155MissingApprovalForAll",
      "type": "error"
    },
    {
      "inputs": [
        {
          "internalType": "address",
          "name": "owner",
          "type": "address"
        }
      ],
      "name": "OwnableInvalidOwner",
      "type": "error"
    },
    {
      "inputs": [
        {
          "internalType": "address",
          "name": "account",
          "type": "address"
        }
      ],
      "name": "OwnableUnauthorizedAccount",
      "type": "error"
    },
    {
      "anonymous": false,
      "inputs": [
        {
          "indexed": true,
          "internalType": "address",
          "name": "account",
          "type": "address"
        },
        {
          "indexed": true,
          "internalType": "address",
          "name": "operator",
          "type": "address"
        },
        {
          "indexed": false,
          "internalType": "bool",
          "name": "approved",
          "type": "bool"
        }
      ],
      "name": "ApprovalForAll",
      "type": "event"
    },
    {
      "anonymous": false,
      "inputs": [
        {
          "indexed": true,
          "internalType": "address",
          "name": "previousOwner",
          "type": "address"
        },
        {
          "indexed": true,
          "internalType": "address",
          "name": "newOwner",
          "type": "address"
        }
      ],
      "name": "OwnershipTransferred",
      "type": "event"
    },
    {
      "anonymous": false,
      "inputs": [
        {
          "indexed": false,
          "internalType": "address",
          "name": "to",
          "type": "address"
        },
        {
          "indexed": true,
          "internalType": "uint256",
          "name": "tokenId",
          "type": "uint256"
        },
        {
          "indexed": false,
          "internalType": "string",
          "name": "tokenURI",
          "type": "string"
        }
      ],
      "name": "TokenAwarded",
      "type": "event"
    },
    {
      "anonymous": false,
      "inputs": [
        {
          "indexed": true,
          "internalType": "address",
          "name": "operator",
          "type": "address"
        },
        {
          "indexed": true,
          "internalType": "address",
          "name": "from",
          "type": "address"
        },
        {
          "indexed": true,
          "internalType": "address",
          "name": "to",
          "type": "address"
        },
        {
          "indexed": false,
          "internalType": "uint256[]",
          "name": "ids",
          "type": "uint256[]"
        },
        {
          "indexed": false,
          "internalType": "uint256[]",
          "name": "values",
          "type": "uint256[]"
        }
      ],
      "name": "TransferBatch",
      "type": "event"
    },
    {
      "anonymous": false,
      "inputs": [
        {
          "indexed": true,
          "internalType": "address",
          "name": "operator",
          "type": "address"
        },
        {
          "indexed": true,
          "internalType": "address",
          "name": "from",
          "type": "address"
        },
        {
          "indexed": true,
          "internalType": "address",
          "name": "to",
          "type": "address"
        },
        {
          "indexed": false,
          "internalType": "uint256",
          "name": "id",
          "type": "uint256"
        },
        {
          "indexed": false,
          "internalType": "uint256",
          "name": "value",
          "type": "uint256"
        }
      ],
      "name": "TransferSingle",
      "type": "event"
    },
    {
      "anonymous": false,
      "inputs": [
        {
          "indexed": false,
          "internalType": "string",
          "name": "value",
          "type": "string"
        },
        {
          "indexed": true,
          "internalType": "uint256",
          "name": "id",
          "type": "uint256"
        }
      ],
      "name": "URI",
      "type": "event"
    },
    {
      "inputs": [
        {
          "internalType": "address",
          "name": "to",
          "type": "address"
        },
        {
          "internalType": "string",
          "name": "tokenURI",
          "type": "string"
        }
      ],
      "name": "awardItem",
      "outputs": [
        {
          "internalType": "uint256",
          "name": "",
          "type": "uint256"
        }
      ],
      "stateMutability": "nonpayable",
      "type": "function"
    },
    {
      "inputs": [
        {
          "internalType": "address",
          "name": "account",
          "type": "address"
        },
        {
          "internalType": "uint256",
          "name": "id",
          "type": "uint256"
        }
      ],
      "name": "balanceOf",
      "outputs": [
        {
          "internalType": "uint256",
          "name": "",
          "type": "uint256"
        }
      ],
      "stateMutability": "view",
      "type": "function"
    },
    {
      "inputs": [
        {
          "internalType": "address[]",
          "name": "accounts",
          "type": "address[]"
        },
        {
          "internalType": "uint256[]",
          "name": "ids",
          "type": "uint256[]"
        }
      ],
      "name": "balanceOfBatch",
      "outputs": [
        {
          "internalType": "uint256[]",
          "name": "",
          "type": "uint256[]"
        }
      ],
      "stateMutability": "view",
      "type": "function"
    },
    {
      "inputs": [
        {
          "internalType": "address",
          "name": "account",
          "type": "address"
        },
        {
          "internalType": "address",
          "name": "operator",
          "type": "address"
        }
      ],
      "name": "isApprovedForAll",
      "outputs": [
        {
          "internalType": "bool",
          "name": "",
          "type": "bool"
        }
      ],
      "stateMutability": "view",
      "type": "function"
    },
    {
      "inputs": [],
      "name": "owner",
      "outputs": [
        {
          "internalType": "address",
          "name": "",
          "type": "address"
        }
      ],
      "stateMutability": "view",
      "type": "function"
    },
    {
      "inputs": [],
      "name": "renounceOwnership",
      "outputs": [],
      "stateMutability": "nonpayable",
      "type": "function"
    },
    {
      "inputs": [
        {
          "internalType": "address",
          "name": "from",
          "type": "address"
        },
        {
          "internalType": "address",
          "name": "to",
          "type": "address"
        },
        {
          "internalType": "uint256[]",
          "name": "ids",
          "type": "uint256[]"
        },
        {
          "internalType": "uint256[]",
          "name": "values",
          "type": "uint256[]"
        },
        {
          "internalType": "bytes",
          "name": "data",
          "type": "bytes"
        }
      ],
      "name": "safeBatchTransferFrom",
      "outputs": [],
      "stateMutability": "nonpayable",
      "type": "function"
    },
    {
      "inputs": [
        {
          "internalType": "address",
          "name": "from",
          "type": "address"
        },
        {
          "internalType": "address",
          "name": "to",
          "type": "address"
        },
        {
          "internalType": "uint256",
          "name": "id",
          "type": "uint256"
        },
        {
          "internalType": "uint256",
          "name": "value",
          "type": "uint256"
        },
        {
          "internalType": "bytes",
          "name": "data",
          "type": "bytes"
        }
      ],
      "name": "safeTransferFrom",
      "outputs": [],
      "stateMutability": "nonpayable",
      "type": "function"
    },
    {
      "inputs": [
        {
          "internalType": "address",
          "name": "operator",
          "type": "address"
        },
        {
          "internalType": "bool",
          "name": "approved",
          "type": "bool"
        }
      ],
      "name": "setApprovalForAll",
      "outputs": [],
      "stateMutability": "nonpayable",
      "type": "function"
    },
    {
      "inputs": [
        {
          "internalType": "bytes4",
          "name": "interfaceId",
          "type": "bytes4"
        }
      ],
      "name": "supportsInterface",
      "outputs": [
        {
          "internalType": "bool",
          "name": "",
          "type": "bool"
        }
      ],
      "stateMutability": "view",
      "type": "function"
    },
    {
      "inputs": [
        {
          "internalType": "uint256",
          "name": "tokenId",
          "type": "uint256"
        }
      ],
      "name": "tokenOwner",
      "outputs": [
        {
          "internalType": "address",
          "name": "",
          "type": "address"
        }
      ],
      "stateMutability": "view",
      "type": "function"
    },
    {
      "inputs": [
        {
          "internalType": "address",
          "name": "newOwner",
          "type": "address"
        }
      ],
      "name": "transferOwnership",
      "outputs": [],
      "stateMutability": "nonpayable",
      "type": "function"
    },
    {
      "inputs": [
        {
          "internalType": "uint256",
          "name": "tokenId",
          "type": "uint256"
        }
      ],
      "name": "uri",
      "outputs": [
        {
          "internalType": "string",
          "name": "",
          "type": "string"
        }
      ],
      "stateMutability": "view",
      "type": "function"
    }
  ],
  "bytecode": "0x608060405260405180602001604052806000815250600390816200002491906200045e565b503480156200003257600080fd5b5060405162003022380380620030228339818101604052810190620000589190620005af565b80604051806020016040528060008152506200007a816200010960201b60201c565b50600073ffffffffffffffffffffffffffffffffffffffff168173ffffffffffffffffffffffffffffffffffffffff1603620000f05760006040517f1e4fbdf7000000000000000000000000000000000000000000000000000000008152600401620000e79190620005f2565b60405180910390fd5b62000101816200011e60201b60201c565b50506200060f565b80600290816200011a91906200045e565b5050565b6000600560009054906101000a900473ffffffffffffffffffffffffffffffffffffffff16905081600560006101000a81548173ffffffffffffffffffffffffffffffffffffffff021916908373ffffffffffffffffffffffffffffffffffffffff1602179055508173ffffffffffffffffffffffffffffffffffffffff168173ffffffffffffffffffffffffffffffffffffffff167f8be0079c531659141344cd1fd0a4f28419497f9722a3daafe3b4186f6b6457e060405160405180910390a35050565b600081519050919050565b7f4e487b7100000000000000000000000000000000000000000000000000000000600052604160045260246000fd5b7f4e487b7100000000000000000000000000000000000000000000000000000000600052602260045260246000fd5b600060028204905060018216806200026657607f821691505b6020821081036200027c576200027b6200021e565b5b50919050565b60008190508160005260206000209050919050565b60006020601f8301049050919050565b600082821b905092915050565b600060088302620002e67fffffffffffffffffffffffffffffffffffffffffffffffffffffffffffffffff82620002a7565b620002f28683620002a7565b95508019841693508086168417925050509392505050565b6000819050919050565b6000819050919050565b60006200033f6200033962000333846200030a565b62000314565b6200030a565b9050919050565b6000819050919050565b6200035b836200031e565b620003736200036a8262000346565b848454620002b4565b825550505050565b600090565b6200038a6200037b565b6200039781848462000350565b505050565b5b81811015620003bf57620003b360008262000380565b6001810190506200039d565b5050565b601f8211156200040e57620003d88162000282565b620003e38462000297565b81016020851015620003f3578190505b6200040b620004028562000297565b8301826200039c565b50505b505050565b600082821c905092915050565b6000620004336000198460080262000413565b1980831691505092915050565b60006200044e838362000420565b9150826002028217905092915050565b6200046982620001e4565b67ffffffffffffffff811115620004855762000484620001ef565b5b6200049182546200024d565b6200049e828285620003c3565b600060209050601f831160018114620004d65760008415620004c1578287015190505b620004cd858262000440565b8655506200053d565b601f198416620004e68662000282565b60005b828110156200051057848901518255600182019150602085019450602081019050620004e9565b868310156200053057848901516200052c601f89168262000420565b8355505b6001600288020188555050505b505050505050565b600080fd5b600073ffffffffffffffffffffffffffffffffffffffff82169050919050565b600062000577826200054a565b9050919050565b62000589816200056a565b81146200059557600080fd5b50565b600081519050620005a9816200057e565b92915050565b600060208284031215620005c857620005c762000545565b5b6000620005d88482850162000598565b91505092915050565b620005ec816200056a565b82525050565b6000602082019050620006096000830184620005e1565b92915050565b612a03806200061f6000396000f3fe608060405234801561001057600080fd5b50600436106100ce5760003560e01c8063715018a61161008c578063cf37834311610066578063cf37834314610223578063e985e9c514610253578063f242432a14610283578063f2fde38b1461029f576100ce565b8063715018a6146101df5780638da5cb5b146101e9578063a22cb46514610207576100ce565b8062fdd58e146100d357806301ffc9a7146101035780630e89341c146101335780631caaa487146101635780632eb2c2d6146101935780634e1273f4146101af575b600080fd5b6100ed60048036038101906100e89190611959565b6102bb565b6040516100fa91906119a8565b60405180910390f35b61011d60048036038101906101189190611a1b565b610315565b60405161012a9190611a63565b60405180910390f35b61014d60048036038101906101489190611a7e565b6103f7565b60405161015a9190611b3b565b60405180910390f35b61017d60048036038101906101789190611a7e565b6104dc565b60405161018a9190611b6c565b60405180910390f35b6101ad60048036038101906101a89190611d84565b610519565b005b6101c960048036038101906101c49190611f16565b6105c1565b6040516101d6919061204c565b60405180910390f35b6101e76106d0565b005b6101f16106e4565b6040516101fe9190611b6c565b60405180910390f35b610221600480360381019061021c919061209a565b61070e565b005b61023d6004803603810190610238919061217b565b610724565b60405161024a91906119a8565b60405180910390f35b61026d600480360381019061026891906121d7565b61080b565b60405161027a9190611a63565b60405180910390f35b61029d60048036038101906102989190612217565b61089f565b005b6102b960048036038101906102b491906122ae565b610947565b005b600080600083815260200190815260200160002060008473ffffffffffffffffffffffffffffffffffffffff1673ffffffffffffffffffffffffffffffffffffffff16815260200190815260200160002054905092915050565b60007fd9b67a26000000000000000000000000000000000000000000000000000000007bffffffffffffffffffffffffffffffffffffffffffffffffffffffff1916827bffffffffffffffffffffffffffffffffffffffffffffffffffffffff191614806103e057507f0e89341c000000000000000000000000000000000000000000000000000000007bffffffffffffffffffffffffffffffffffffffffffffffffffffffff1916827bffffffffffffffffffffffffffffffffffffffffffffffffffffffff1916145b806103f057506103ef826109cd565b5b9050919050565b606060006004600084815260200190815260200160002080546104199061230a565b80601f01602080910402602001604051908101604052809291908181526020018280546104459061230a565b80156104925780601f1061046757610100808354040283529160200191610492565b820191906000526020600020905b81548152906001019060200180831161047557829003601f168201915b5050505050905060008151116104b0576104ab83610a37565b6104d4565b6003816040516020016104c492919061240f565b6040516020818303038152906040525b915050919050565b60006007600083815260200190815260200160002060009054906101000a900473ffffffffffffffffffffffffffffffffffffffff169050919050565b6000610523610acb565b90508073ffffffffffffffffffffffffffffffffffffffff168673ffffffffffffffffffffffffffffffffffffffff16141580156105685750610566868261080b565b155b156105ac5780866040517fe237d9220000000000000000000000000000000000000000000000000000000081526004016105a3929190612433565b60405180910390fd5b6105b98686868686610ad3565b505050505050565b6060815183511461060d57815183516040517f5b05999100000000000000000000000000000000000000000000000000000000815260040161060492919061245c565b60405180910390fd5b6000835167ffffffffffffffff81111561062a57610629611b8c565b5b6040519080825280602002602001820160405280156106585781602001602082028036833780820191505090505b50905060005b84518110156106c55761069561067d8287610bcb90919063ffffffff16565b6106908387610bdf90919063ffffffff16565b6102bb565b8282815181106106a8576106a7612485565b5b602002602001018181525050806106be906124e3565b905061065e565b508091505092915050565b6106d8610bf3565b6106e26000610c7a565b565b6000600560009054906101000a900473ffffffffffffffffffffffffffffffffffffffff16905090565b610720610719610acb565b8383610d40565b5050565b600061072e610bf3565b60066000815480929190610741906124e3565b919050555061076483600654600160405180602001604052806000815250610eb0565b61077060065483610f49565b8260076000600654815260200190815260200160002060006101000a81548173ffffffffffffffffffffffffffffffffffffffff021916908373ffffffffffffffffffffffffffffffffffffffff1602179055506006547f91f8d55b7259beff3bf12ad5f466251c1e64094649979ddb015f2e17f250443884846040516107f892919061252b565b60405180910390a2600654905092915050565b6000600160008473ffffffffffffffffffffffffffffffffffffffff1673ffffffffffffffffffffffffffffffffffffffff16815260200190815260200160002060008373ffffffffffffffffffffffffffffffffffffffff1673ffffffffffffffffffffffffffffffffffffffff16815260200190815260200160002060009054906101000a900460ff16905092915050565b60006108a9610acb565b90508073ffffffffffffffffffffffffffffffffffffffff168673ffffffffffffffffffffffffffffffffffffffff16141580156108ee57506108ec868261080b565b155b156109325780866040517fe237d922000000000000000000000000000000000000000000000000000000008152600401610929929190612433565b60405180910390fd5b61093f8686868686610fae565b505050505050565b61094f610bf3565b600073ffffffffffffffffffffffffffffffffffffffff168173ffffffffffffffffffffffffffffffffffffffff16036109c15760006040517f1e4fbdf70000000000000000000000000000000000000000000000000000000081526004016109b89190611b6c565b60405180910390fd5b6109ca81610c7a565b50565b60007f01ffc9a7000000000000000000000000000000000000000000000000000000007bffffffffffffffffffffffffffffffffffffffffffffffffffffffff1916827bffffffffffffffffffffffffffffffffffffffffffffffffffffffff1916149050919050565b606060028054610a469061230a565b80601f0160208091040260200160405190810160405280929190818152602001828054610a729061230a565b8015610abf5780601f10610a9457610100808354040283529160200191610abf565b820191906000526020600020905b815481529060010190602001808311610aa257829003601f168201915b50505050509050919050565b600033905090565b600073ffffffffffffffffffffffffffffffffffffffff168473ffffffffffffffffffffffffffffffffffffffff1603610b455760006040517f57f447ce000000000000000000000000000000000000000000000000000000008152600401610b3c9190611b6c565b60405180910390fd5b600073ffffffffffffffffffffffffffffffffffffffff168573ffffffffffffffffffffffffffffffffffffffff1603610bb75760006040517f01a83514000000000000000000000000000000000000000000000000000000008152600401610bae9190611b6c565b60405180910390fd5b610bc485858585856110b9565b5050505050565b600060208202602084010151905092915050565b600060208202602084010151905092915050565b610bfb610acb565b73ffffffffffffffffffffffffffffffffffffffff16610c196106e4565b73ffffffffffffffffffffffffffffffffffffffff1614610c7857610c3c610acb565b6040517f118cdaa7000000000000000000000000000000000000000000000000000000008152600401610c6f9190611b6c565b60405180910390fd5b565b6000600560009054906101000a900473ffffffffffffffffffffffffffffffffffffffff16905081600560006101000a81548173ffffffffffffffffffffffffffffffffffffffff021916908373ffffffffffffffffffffffffffffffffffffffff1602179055508173ffffffffffffffffffffffffffffffffffffffff168173ffffffffffffffffffffffffffffffffffffffff167f8be0079c531659141344cd1fd0a4f28419497f9722a3daafe3b4186f6b6457e060405160405180910390a35050565b600073ffffffffffffffffffffffffffffffffffffffff168273ffffffffffffffffffffffffffffffffffffffff1603610db25760006040517fced3e100000000000000000000000000000000000000000000000000000000008152600401610da99190611b6c565b60405180910390fd5b80600160008573ffffffffffffffffffffffffffffffffffffffff1673ffffffffffffffffffffffffffffffffffffffff16815260200190815260200160002060008473ffffffffffffffffffffffffffffffffffffffff1673ffffffffffffffffffffffffffffffffffffffff16815260200190815260200160002060006101000a81548160ff0219169083151502179055508173ffffffffffffffffffffffffffffffffffffffff168373ffffffffffffffffffffffffffffffffffffffff167f17307eab39ab6107e8899845ad3d59bd9653f200f220920489ca2b5937696c3183604051610ea39190611a63565b60405180910390a3505050565b600073ffffffffffffffffffffffffffffffffffffffff168473ffffffffffffffffffffffffffffffffffffffff1603610f225760006040517f57f447ce000000000000000000000000000000000000000000000000000000008152600401610f199190611b6c565b60405180910390fd5b600080610f2f858561116b565b91509150610f416000878484876110b9565b505050505050565b80600460008481526020019081526020016000209081610f6991906126f2565b50817f6bb7ff708619ba0610cba295a58592e0451dee2622938c8755667688daf3529b610f95846103f7565b604051610fa29190611b3b565b60405180910390a25050565b600073ffffffffffffffffffffffffffffffffffffffff168473ffffffffffffffffffffffffffffffffffffffff16036110205760006040517f57f447ce0000000000000000000000000000000000000000000000000000000081526004016110179190611b6c565b60405180910390fd5b600073ffffffffffffffffffffffffffffffffffffffff168573ffffffffffffffffffffffffffffffffffffffff16036110925760006040517f01a835140000000000000000000000000000000000000000000000000000000081526004016110899190611b6c565b60405180910390fd5b60008061109f858561116b565b915091506110b087878484876110b9565b50505050505050565b6110c58585858561119b565b600073ffffffffffffffffffffffffffffffffffffffff168473ffffffffffffffffffffffffffffffffffffffff1614611164576000611103610acb565b90506001845103611153576000611124600086610bdf90919063ffffffff16565b9050600061113c600086610bdf90919063ffffffff16565b905061114c838989858589611549565b5050611162565b6111618187878787876116fd565b5b505b5050505050565b60608060405191506001825283602083015260408201905060018152826020820152604081016040529250929050565b80518251146111e557815181516040517f5b0599910000000000000000000000000000000000000000000000000000000081526004016111dc92919061245c565b60405180910390fd5b60006111ef610acb565b905060005b83518110156114045760006112128286610bdf90919063ffffffff16565b905060006112298386610bdf90919063ffffffff16565b9050600073ffffffffffffffffffffffffffffffffffffffff168873ffffffffffffffffffffffffffffffffffffffff161461135657600080600084815260200190815260200160002060008a73ffffffffffffffffffffffffffffffffffffffff1673ffffffffffffffffffffffffffffffffffffffff168152602001908152602001600020549050818110156112fe57888183856040517f03dee4c50000000000000000000000000000000000000000000000000000000081526004016112f594939291906127c4565b60405180910390fd5b81810360008085815260200190815260200160002060008b73ffffffffffffffffffffffffffffffffffffffff1673ffffffffffffffffffffffffffffffffffffffff16815260200190815260200160002081905550505b600073ffffffffffffffffffffffffffffffffffffffff168773ffffffffffffffffffffffffffffffffffffffff16146113f1578060008084815260200190815260200160002060008973ffffffffffffffffffffffffffffffffffffffff1673ffffffffffffffffffffffffffffffffffffffff16815260200190815260200160002060008282546113e99190612809565b925050819055505b5050806113fd906124e3565b90506111f4565b5060018351036114c3576000611424600085610bdf90919063ffffffff16565b9050600061143c600085610bdf90919063ffffffff16565b90508573ffffffffffffffffffffffffffffffffffffffff168773ffffffffffffffffffffffffffffffffffffffff168473ffffffffffffffffffffffffffffffffffffffff167fc3d58168c5ae7397731d063d5bbf3d657854427343f4c083240f7aacaa2d0f6285856040516114b492919061245c565b60405180910390a45050611542565b8373ffffffffffffffffffffffffffffffffffffffff168573ffffffffffffffffffffffffffffffffffffffff168273ffffffffffffffffffffffffffffffffffffffff167f4a39dc06d4c0dbc64b70af90fd698a233a518aa5d07e595d983b8c0526c8f7fb868660405161153992919061283d565b60405180910390a45b5050505050565b60008473ffffffffffffffffffffffffffffffffffffffff163b11156116f5578373ffffffffffffffffffffffffffffffffffffffff1663f23a6e6187878686866040518663ffffffff1660e01b81526004016115aa9594939291906128c9565b6020604051808303816000875af19250505080156115e657506040513d601f19601f820116820180604052508101906115e39190612938565b60015b61166a573d8060008114611616576040519150601f19603f3d011682016040523d82523d6000602084013e61161b565b606091505b50600081510361166257846040517f57f447ce0000000000000000000000000000000000000000000000000000000081526004016116599190611b6c565b60405180910390fd5b805181602001fd5b63f23a6e6160e01b7bffffffffffffffffffffffffffffffffffffffffffffffffffffffff1916817bffffffffffffffffffffffffffffffffffffffffffffffffffffffff1916146116f357846040517f57f447ce0000000000000000000000000000000000000000000000000000000081526004016116ea9190611b6c565b60405180910390fd5b505b505050505050565b60008473ffffffffffffffffffffffffffffffffffffffff163b11156118a9578373ffffffffffffffffffffffffffffffffffffffff1663bc197c8187878686866040518663ffffffff1660e01b815260040161175e959493929190612965565b6020604051808303816000875af192505050801561179a57506040513d601f19601f820116820180604052508101906117979190612938565b60015b61181e573d80600081146117ca576040519150601f19603f3d011682016040523d82523d6000602084013e6117cf565b606091505b50600081510361181657846040517f57f447ce00000000000000000000000000000000000000000000000000000000815260040161180d9190611b6c565b60405180910390fd5b805181602001fd5b63bc197c8160e01b7bffffffffffffffffffffffffffffffffffffffffffffffffffffffff1916817bffffffffffffffffffffffffffffffffffffffffffffffffffffffff1916146118a757846040517f57f447ce00000000000000000000000000000000000000000000000000000000815260040161189e9190611b6c565b60405180910390fd5b505b505050505050565b6000604051905090565b600080fd5b600080fd5b600073ffffffffffffffffffffffffffffffffffffffff82169050919050565b60006118f0826118c5565b9050919050565b611900816118e5565b811461190b57600080fd5b50565b60008135905061191d816118f7565b92915050565b6000819050919050565b61193681611923565b811461194157600080fd5b50565b6000813590506119538161192d565b92915050565b600080604083850312156119705761196f6118bb565b5b600061197e8582860161190e565b925050602061198f85828601611944565b9150509250929050565b6119a281611923565b82525050565b60006020820190506119bd6000830184611999565b92915050565b60007fffffffff0000000000000000000000000000000000000000000000000000000082169050919050565b6119f8816119c3565b8114611a0357600080fd5b50565b600081359050611a15816119ef565b92915050565b600060208284031215611a3157611a306118bb565b5b6000611a3f84828501611a06565b91505092915050565b60008115159050919050565b611a5d81611a48565b82525050565b6000602082019050611a786000830184611a54565b92915050565b600060208284031215611a9457611a936118bb565b5b6000611aa284828501611944565b91505092915050565b600081519050919050565b600082825260208201905092915050565b60005b83811015611ae5578082015181840152602081019050611aca565b60008484015250505050565b6000601f19601f8301169050919050565b6000611b0d82611aab565b611b178185611ab6565b9350611b27818560208601611ac7565b611b3081611af1565b840191505092915050565b60006020820190508181036000830152611b558184611b02565b905092915050565b611b66816118e5565b82525050565b6000602082019050611b816000830184611b5d565b92915050565b600080fd5b7f4e487b7100000000000000000000000000000000000000000000000000000000600052604160045260246000fd5b611bc482611af1565b810181811067ffffffffffffffff82111715611be357611be2611b8c565b5b80604052505050565b6000611bf66118b1565b9050611c028282611bbb565b919050565b600067ffffffffffffffff821115611c2257611c21611b8c565b5b602082029050602081019050919050565b600080fd5b6000611c4b611c4684611c07565b611bec565b90508083825260208201905060208402830185811115611c6e57611c6d611c33565b5b835b81811015611c975780611c838882611944565b845260208401935050602081019050611c70565b5050509392505050565b600082601f830112611cb657611cb5611b87565b5b8135611cc6848260208601611c38565b91505092915050565b600080fd5b600067ffffffffffffffff821115611cef57611cee611b8c565b5b611cf882611af1565b9050602081019050919050565b82818337600083830152505050565b6000611d27611d2284611cd4565b611bec565b905082815260208101848484011115611d4357611d42611ccf565b5b611d4e848285611d05565b509392505050565b600082601f830112611d6b57611d6a611b87565b5b8135611d7b848260208601611d14565b91505092915050565b600080600080600060a08688031215611da057611d9f6118bb565b5b6000611dae8882890161190e565b9550506020611dbf8882890161190e565b945050604086013567ffffffffffffffff811115611de057611ddf6118c0565b5b611dec88828901611ca1565b935050606086013567ffffffffffffffff811115611e0d57611e0c6118c0565b5b611e1988828901611ca1565b925050608086013567ffffffffffffffff811115611e3a57611e396118c0565b5b611e4688828901611d56565b9150509295509295909350565b600067ffffffffffffffff821115611e6e57611e6d611b8c565b5b602082029050602081019050919050565b6000611e92611e8d84611e53565b611bec565b90508083825260208201905060208402830185811115611eb557611eb4611c33565b5b835b81811015611ede5780611eca888261190e565b845260208401935050602081019050611eb7565b5050509392505050565b600082601f830112611efd57611efc611b87565b5b8135611f0d848260208601611e7f565b91505092915050565b60008060408385031215611f2d57611f2c6118bb565b5b600083013567ffffffffffffffff811115611f4b57611f4a6118c0565b5b611f5785828601611ee8565b925050602083013567ffffffffffffffff811115611f7857611f776118c0565b5b611f8485828601611ca1565b9150509250929050565b600081519050919050565b600082825260208201905092915050565b6000819050602082019050919050565b611fc381611923565b82525050565b6000611fd58383611fba565b60208301905092915050565b6000602082019050919050565b6000611ff982611f8e565b6120038185611f99565b935061200e83611faa565b8060005b8381101561203f5781516120268882611fc9565b975061203183611fe1565b925050600181019050612012565b5085935050505092915050565b600060208201905081810360008301526120668184611fee565b905092915050565b61207781611a48565b811461208257600080fd5b50565b6000813590506120948161206e565b92915050565b600080604083850312156120b1576120b06118bb565b5b60006120bf8582860161190e565b92505060206120d085828601612085565b9150509250929050565b600067ffffffffffffffff8211156120f5576120f4611b8c565b5b6120fe82611af1565b9050602081019050919050565b600061211e612119846120da565b611bec565b90508281526020810184848401111561213a57612139611ccf565b5b612145848285611d05565b509392505050565b600082601f83011261216257612161611b87565b5b813561217284826020860161210b565b91505092915050565b60008060408385031215612192576121916118bb565b5b60006121a08582860161190e565b925050602083013567ffffffffffffffff8111156121c1576121c06118c0565b5b6121cd8582860161214d565b9150509250929050565b600080604083850312156121ee576121ed6118bb565b5b60006121fc8582860161190e565b925050602061220d8582860161190e565b9150509250929050565b600080600080600060a08688031215612233576122326118bb565b5b60006122418882890161190e565b95505060206122528882890161190e565b945050604061226388828901611944565b935050606061227488828901611944565b925050608086013567ffffffffffffffff811115612295576122946118c0565b5b6122a188828901611d56565b9150509295509295909350565b6000602082840312156122c4576122c36118bb565b5b60006122d28482850161190e565b91505092915050565b7f4e487b7100000000000000000000000000000000000000000000000000000000600052602260045260246000fd5b6000600282049050600182168061232257607f821691505b602082108103612335576123346122db565b5b50919050565b600081905092915050565b60008190508160005260206000209050919050565b600081546123688161230a565b612372818661233b565b9450600182166000811461238d57600181146123a2576123d5565b60ff19831686528115158202860193506123d5565b6123ab85612346565b60005b838110156123cd578154818901526001820191506020810190506123ae565b838801955050505b50505092915050565b60006123e982611aab565b6123f3818561233b565b9350612403818560208601611ac7565b80840191505092915050565b600061241b828561235b565b915061242782846123de565b91508190509392505050565b60006040820190506124486000830185611b5d565b6124556020830184611b5d565b9392505050565b60006040820190506124716000830185611999565b61247e6020830184611999565b9392505050565b7f4e487b7100000000000000000000000000000000000000000000000000000000600052603260045260246000fd5b7f4e487b7100000000000000000000000000000000000000000000000000000000600052601160045260246000fd5b60006124ee82611923565b91507fffffffffffffffffffffffffffffffffffffffffffffffffffffffffffffffff82036125205761251f6124b4565b5b600182019050919050565b60006040820190506125406000830185611b5d565b81810360208301526125528184611b02565b90509392505050565b60006020601f8301049050919050565b600082821b905092915050565b6000600883026125a87fffffffffffffffffffffffffffffffffffffffffffffffffffffffffffffffff8261256b565b6125b2868361256b565b95508019841693508086168417925050509392505050565b6000819050919050565b60006125ef6125ea6125e584611923565b6125ca565b611923565b9050919050565b6000819050919050565b612609836125d4565b61261d612615826125f6565b848454612578565b825550505050565b600090565b612632612625565b61263d818484612600565b505050565b5b818110156126615761265660008261262a565b600181019050612643565b5050565b601f8211156126a65761267781612346565b6126808461255b565b8101602085101561268f578190505b6126a361269b8561255b565b830182612642565b50505b505050565b600082821c905092915050565b60006126c9600019846008026126ab565b1980831691505092915050565b60006126e283836126b8565b9150826002028217905092915050565b6126fb82611aab565b67ffffffffffffffff81111561271457612713611b8c565b5b61271e825461230a565b612729828285612665565b600060209050601f83116001811461275c576000841561274a578287015190505b61275485826126d6565b8655506127bc565b601f19841661276a86612346565b60005b828110156127925784890151825560018201915060208501945060208101905061276d565b868310156127af57848901516127ab601f8916826126b8565b8355505b6001600288020188555050505b505050505050565b60006080820190506127d96000830187611b5d565b6127e66020830186611999565b6127f36040830185611999565b6128006060830184611999565b95945050505050565b600061281482611923565b915061281f83611923565b9250828201905080821115612837576128366124b4565b5b92915050565b600060408201905081810360008301526128578185611fee565b9050818103602083015261286b8184611fee565b90509392505050565b600081519050919050565b600082825260208201905092915050565b600061289b82612874565b6128a5818561287f565b93506128b5818560208601611ac7565b6128be81611af1565b840191505092915050565b600060a0820190506128de6000830188611b5d565b6128eb6020830187611b5d565b6128f86040830186611999565b6129056060830185611999565b81810360808301526129178184612890565b90509695505050505050565b600081519050612932816119ef565b92915050565b60006020828403121561294e5761294d6118bb565b5b600061295c84828501612923565b91505092915050565b600060a08201905061297a6000830188611b5d565b6129876020830187611b5d565b81810360408301526129998186611fee565b905081810360608301526129ad8185611fee565b905081810360808301526129c18184612890565b9050969550505050505056fea2646970667358221220e2747068b2025ec12337435daff6c794ca1aa87eb382ede2d2f0d5052654822564736f6c63430008140033",
  "linkReferences": {},
  "deployedLinkReferences": {}
}