{
  "_format": "hh-sol-artifact-1",
  "contractName": "QuizScore",
  "sourceName": "contracts/QuizScore.sol",
  "abi": [
    {
      "inputs": [
        {
          "internalType": "address",
          "name": "initialOwner",
          "type": "address"
        }
      ],
      "stateMutability": "nonpayable",
      "type": "constructor"
    },
    {
      "inputs": [
        {
          "internalType": "address",
          "name": "sender",
          "type": "address"
        },
        {
          "internalType": "uint256",
          "name": "balance",
          "type": "uint256"
        },
        {
          "internalType": "uint256",
          "name": "needed",
          "type": "uint256"
        },
        {
          "internalType": "uint256",
          "name": "tokenId",
          "type": "uint256"
        }
      ],
      "name": "ERC1155InsufficientBalance",
      "type": "error"
    },
    {
      "inputs": [
        {
          "internalType": "address",
          "name": "approver",
          "type": "address"
        }
      ],
      "name": "ERC1155InvalidApprover",
      "type": "error"
    },
    {
      "inputs": [
        {
          "internalType": "uint256",
          "name": "idsLength",
          "type": "uint256"
        },
        {
          "internalType": "uint256",
          "name": "valuesLength",
          "type": "uint256"
        }
      ],
      "name": "ERC1155InvalidArrayLength",
      "type": "error"
    },
    {
      "inputs": [
        {
          "internalType": "address",
          "name": "operator",
          "type": "address"
        }
      ],
      "name": "ERC1155InvalidOperator",
      "type": "error"
    },
    {
      "inputs": [
        {
          "internalType": "address",
          "name": "receiver",
          "type": "address"
        }
      ],
      "name": "ERC1155InvalidReceiver",
      "type": "error"
    },
    {
      "inputs": [
        {
          "internalType": "address",
          "name": "sender",
          "type": "address"
        }
      ],
      "name": "ERC1155InvalidSender",
      "type": "error"
    },
    {
      "inputs": [
        {
          "internalType": "address",
          "name": "operator",
          "type": "address"
        },
        {
          "internalType": "address",
          "name": "owner",
          "type": "address"
        }
      ],
      "name": "ERC1155MissingApprovalForAll",
      "type": "error"
    },
    {
      "inputs": [
        {
          "internalType": "address",
          "name": "owner",
          "type": "address"
        }
      ],
      "name": "OwnableInvalidOwner",
      "type": "error"
    },
    {
      "inputs": [
        {
          "internalType": "address",
          "name": "account",
          "type": "address"
        }
      ],
      "name": "OwnableUnauthorizedAccount",
      "type": "error"
    },
    {
      "anonymous": false,
      "inputs": [
        {
          "indexed": true,
          "internalType": "address",
          "name": "account",
          "type": "address"
        },
        {
          "indexed": true,
          "internalType": "address",
          "name": "operator",
          "type": "address"
        },
        {
          "indexed": false,
          "internalType": "bool",
          "name": "approved",
          "type": "bool"
        }
      ],
      "name": "ApprovalForAll",
      "type": "event"
    },
    {
      "anonymous": false,
      "inputs": [
        {
          "indexed": true,
          "internalType": "address",
          "name": "previousOwner",
          "type": "address"
        },
        {
          "indexed": true,
          "internalType": "address",
          "name": "newOwner",
          "type": "address"
        }
      ],
      "name": "OwnershipTransferred",
      "type": "event"
    },
    {
      "anonymous": false,
      "inputs": [
        {
          "indexed": false,
          "internalType": "address",
          "name": "to",
          "type": "address"
        },
        {
          "indexed": true,
          "internalType": "uint256",
          "name": "tokenId",
          "type": "uint256"
        },
        {
          "indexed": false,
          "internalType": "string",
          "name": "tokenURI",
          "type": "string"
        }
      ],
      "name": "TokenAwarded",
      "type": "event"
    },
    {
      "anonymous": false,
      "inputs": [
        {
          "indexed": true,
          "internalType": "address",
          "name": "operator",
          "type": "address"
        },
        {
          "indexed": true,
          "internalType": "address",
          "name": "from",
          "type": "address"
        },
        {
          "indexed": true,
          "internalType": "address",
          "name": "to",
          "type": "address"
        },
        {
          "indexed": false,
          "internalType": "uint256[]",
          "name": "ids",
          "type": "uint256[]"
        },
        {
          "indexed": false,
          "internalType": "uint256[]",
          "name": "values",
          "type": "uint256[]"
        }
      ],
      "name": "TransferBatch",
      "type": "event"
    },
    {
      "anonymous": false,
      "inputs": [
        {
          "indexed": true,
          "internalType": "address",
          "name": "operator",
          "type": "address"
        },
        {
          "indexed": true,
          "internalType": "address",
          "name": "from",
          "type": "address"
        },
        {
          "indexed": true,
          "internalType": "address",
          "name": "to",
          "type": "address"
        },
        {
          "indexed": false,
          "internalType": "uint256",
          "name": "id",
          "type": "uint256"
        },
        {
          "indexed": false,
          "internalType": "uint256",
          "name": "value",
          "type": "uint256"
        }
      ],
      "name": "TransferSingle",
      "type": "event"
    },
    {
      "anonymous": false,
      "inputs": [
        {
          "indexed": false,
          "internalType": "string",
          "name": "value",
          "type": "string"
        },
        {
          "indexed": true,
          "internalType": "uint256",
          "name": "id",
          "type": "uint256"
        }
      ],
      "name": "URI",
      "type": "event"
    },
    {
      "inputs": [
        {
          "internalType": "address",
          "name": "to",
          "type": "address"
        },
        {
          "internalType": "string",
          "name": "tokenURI",
          "type": "string"
        }
      ],
      "name": "awardItem",
      "outputs": [
        {
          "internalType": "uint256",
          "name": "",
          "type": "uint256"
        }
      ],
      "stateMutability": "payable",
      "type": "function"
    },
    {
      "inputs": [
        {
          "internalType": "address",
          "name": "account",
          "type": "address"
        },
        {
          "internalType": "uint256",
          "name": "id",
          "type": "uint256"
        }
      ],
      "name": "balanceOf",
      "outputs": [
        {
          "internalType": "uint256",
          "name": "",
          "type": "uint256"
        }
      ],
      "stateMutability": "view",
      "type": "function"
    },
    {
      "inputs": [
        {
          "internalType": "address[]",
          "name": "accounts",
          "type": "address[]"
        },
        {
          "internalType": "uint256[]",
          "name": "ids",
          "type": "uint256[]"
        }
      ],
      "name": "balanceOfBatch",
      "outputs": [
        {
          "internalType": "uint256[]",
          "name": "",
          "type": "uint256[]"
        }
      ],
      "stateMutability": "view",
      "type": "function"
    },
    {
      "inputs": [
        {
          "internalType": "address",
          "name": "account",
          "type": "address"
        },
        {
          "internalType": "address",
          "name": "operator",
          "type": "address"
        }
      ],
      "name": "isApprovedForAll",
      "outputs": [
        {
          "internalType": "bool",
          "name": "",
          "type": "bool"
        }
      ],
      "stateMutability": "view",
      "type": "function"
    },
    {
      "inputs": [],
      "name": "owner",
      "outputs": [
        {
          "internalType": "address",
          "name": "",
          "type": "address"
        }
      ],
      "stateMutability": "view",
      "type": "function"
    },
    {
      "inputs": [],
      "name": "renounceOwnership",
      "outputs": [],
      "stateMutability": "nonpayable",
      "type": "function"
    },
    {
      "inputs": [
        {
          "internalType": "address",
          "name": "from",
          "type": "address"
        },
        {
          "internalType": "address",
          "name": "to",
          "type": "address"
        },
        {
          "internalType": "uint256[]",
          "name": "ids",
          "type": "uint256[]"
        },
        {
          "internalType": "uint256[]",
          "name": "values",
          "type": "uint256[]"
        },
        {
          "internalType": "bytes",
          "name": "data",
          "type": "bytes"
        }
      ],
      "name": "safeBatchTransferFrom",
      "outputs": [],
      "stateMutability": "nonpayable",
      "type": "function"
    },
    {
      "inputs": [
        {
          "internalType": "address",
          "name": "from",
          "type": "address"
        },
        {
          "internalType": "address",
          "name": "to",
          "type": "address"
        },
        {
          "internalType": "uint256",
          "name": "id",
          "type": "uint256"
        },
        {
          "internalType": "uint256",
          "name": "value",
          "type": "uint256"
        },
        {
          "internalType": "bytes",
          "name": "data",
          "type": "bytes"
        }
      ],
      "name": "safeTransferFrom",
      "outputs": [],
      "stateMutability": "nonpayable",
      "type": "function"
    },
    {
      "inputs": [
        {
          "internalType": "address",
          "name": "operator",
          "type": "address"
        },
        {
          "internalType": "bool",
          "name": "approved",
          "type": "bool"
        }
      ],
      "name": "setApprovalForAll",
      "outputs": [],
      "stateMutability": "nonpayable",
      "type": "function"
    },
    {
      "inputs": [
        {
          "internalType": "bytes4",
          "name": "interfaceId",
          "type": "bytes4"
        }
      ],
      "name": "supportsInterface",
      "outputs": [
        {
          "internalType": "bool",
          "name": "",
          "type": "bool"
        }
      ],
      "stateMutability": "view",
      "type": "function"
    },
    {
      "inputs": [
        {
          "internalType": "uint256",
          "name": "tokenId",
          "type": "uint256"
        }
      ],
      "name": "tokenOwner",
      "outputs": [
        {
          "internalType": "address",
          "name": "",
          "type": "address"
        }
      ],
      "stateMutability": "view",
      "type": "function"
    },
    {
      "inputs": [
        {
          "internalType": "address",
          "name": "newOwner",
          "type": "address"
        }
      ],
      "name": "transferOwnership",
      "outputs": [],
      "stateMutability": "nonpayable",
      "type": "function"
    },
    {
      "inputs": [
        {
          "internalType": "uint256",
          "name": "tokenId",
          "type": "uint256"
        }
      ],
      "name": "uri",
      "outputs": [
        {
          "internalType": "string",
          "name": "",
          "type": "string"
        }
      ],
      "stateMutability": "view",
      "type": "function"
    }
  ],
  "bytecode": "0x608060405260405180602001604052806000815250600390816200002491906200045e565b503480156200003257600080fd5b50604051620030a9380380620030a98339818101604052810190620000589190620005af565b80604051806020016040528060008152506200007a816200010960201b60201c565b50600073ffffffffffffffffffffffffffffffffffffffff168173ffffffffffffffffffffffffffffffffffffffff1603620000f05760006040517f1e4fbdf7000000000000000000000000000000000000000000000000000000008152600401620000e79190620005f2565b60405180910390fd5b62000101816200011e60201b60201c565b50506200060f565b80600290816200011a91906200045e565b5050565b6000600560009054906101000a900473ffffffffffffffffffffffffffffffffffffffff16905081600560006101000a81548173ffffffffffffffffffffffffffffffffffffffff021916908373ffffffffffffffffffffffffffffffffffffffff1602179055508173ffffffffffffffffffffffffffffffffffffffff168173ffffffffffffffffffffffffffffffffffffffff167f8be0079c531659141344cd1fd0a4f28419497f9722a3daafe3b4186f6b6457e060405160405180910390a35050565b600081519050919050565b7f4e487b7100000000000000000000000000000000000000000000000000000000600052604160045260246000fd5b7f4e487b7100000000000000000000000000000000000000000000000000000000600052602260045260246000fd5b600060028204905060018216806200026657607f821691505b6020821081036200027c576200027b6200021e565b5b50919050565b60008190508160005260206000209050919050565b60006020601f8301049050919050565b600082821b905092915050565b600060088302620002e67fffffffffffffffffffffffffffffffffffffffffffffffffffffffffffffffff82620002a7565b620002f28683620002a7565b95508019841693508086168417925050509392505050565b6000819050919050565b6000819050919050565b60006200033f6200033962000333846200030a565b62000314565b6200030a565b9050919050565b6000819050919050565b6200035b836200031e565b620003736200036a8262000346565b848454620002b4565b825550505050565b600090565b6200038a6200037b565b6200039781848462000350565b505050565b5b81811015620003bf57620003b360008262000380565b6001810190506200039d565b5050565b601f8211156200040e57620003d88162000282565b620003e38462000297565b81016020851015620003f3578190505b6200040b620004028562000297565b8301826200039c565b50505b505050565b600082821c905092915050565b6000620004336000198460080262000413565b1980831691505092915050565b60006200044e838362000420565b9150826002028217905092915050565b6200046982620001e4565b67ffffffffffffffff811115620004855762000484620001ef565b5b6200049182546200024d565b6200049e828285620003c3565b600060209050601f831160018114620004d65760008415620004c1578287015190505b620004cd858262000440565b8655506200053d565b601f198416620004e68662000282565b60005b828110156200051057848901518255600182019150602085019450602081019050620004e9565b868310156200053057848901516200052c601f89168262000420565b8355505b6001600288020188555050505b505050505050565b600080fd5b600073ffffffffffffffffffffffffffffffffffffffff82169050919050565b600062000577826200054a565b9050919050565b62000589816200056a565b81146200059557600080fd5b50565b600081519050620005a9816200057e565b92915050565b600060208284031215620005c857620005c762000545565b5b6000620005d88482850162000598565b91505092915050565b620005ec816200056a565b82525050565b6000602082019050620006096000830184620005e1565b92915050565b612a8a806200061f6000396000f3fe6080604052600436106100c15760003560e01c8063715018a61161007f578063cf37834311610059578063cf3783431461028b578063e985e9c5146102bb578063f242432a146102f8578063f2fde38b14610321576100c1565b8063715018a6146102205780638da5cb5b14610237578063a22cb46514610262576100c1565b8062fdd58e146100c657806301ffc9a7146101035780630e89341c146101405780631caaa4871461017d5780632eb2c2d6146101ba5780634e1273f4146101e3575b600080fd5b3480156100d257600080fd5b506100ed60048036038101906100e891906119e0565b61034a565b6040516100fa9190611a2f565b60405180910390f35b34801561010f57600080fd5b5061012a60048036038101906101259190611aa2565b6103a4565b6040516101379190611aea565b60405180910390f35b34801561014c57600080fd5b5061016760048036038101906101629190611b05565b610486565b6040516101749190611bc2565b60405180910390f35b34801561018957600080fd5b506101a4600480360381019061019f9190611b05565b61056b565b6040516101b19190611bf3565b60405180910390f35b3480156101c657600080fd5b506101e160048036038101906101dc9190611e0b565b6105a8565b005b3480156101ef57600080fd5b5061020a60048036038101906102059190611f9d565b610650565b60405161021791906120d3565b60405180910390f35b34801561022c57600080fd5b5061023561075f565b005b34801561024357600080fd5b5061024c610773565b6040516102599190611bf3565b60405180910390f35b34801561026e57600080fd5b5061028960048036038101906102849190612121565b61079d565b005b6102a560048036038101906102a09190612202565b6107b3565b6040516102b29190611a2f565b60405180910390f35b3480156102c757600080fd5b506102e260048036038101906102dd919061225e565b610892565b6040516102ef9190611aea565b60405180910390f35b34801561030457600080fd5b5061031f600480360381019061031a919061229e565b610926565b005b34801561032d57600080fd5b5061034860048036038101906103439190612335565b6109ce565b005b600080600083815260200190815260200160002060008473ffffffffffffffffffffffffffffffffffffffff1673ffffffffffffffffffffffffffffffffffffffff16815260200190815260200160002054905092915050565b60007fd9b67a26000000000000000000000000000000000000000000000000000000007bffffffffffffffffffffffffffffffffffffffffffffffffffffffff1916827bffffffffffffffffffffffffffffffffffffffffffffffffffffffff1916148061046f57507f0e89341c000000000000000000000000000000000000000000000000000000007bffffffffffffffffffffffffffffffffffffffffffffffffffffffff1916827bffffffffffffffffffffffffffffffffffffffffffffffffffffffff1916145b8061047f575061047e82610a54565b5b9050919050565b606060006004600084815260200190815260200160002080546104a890612391565b80601f01602080910402602001604051908101604052809291908181526020018280546104d490612391565b80156105215780601f106104f657610100808354040283529160200191610521565b820191906000526020600020905b81548152906001019060200180831161050457829003601f168201915b50505050509050600081511161053f5761053a83610abe565b610563565b600381604051602001610553929190612496565b6040516020818303038152906040525b915050919050565b60006007600083815260200190815260200160002060009054906101000a900473ffffffffffffffffffffffffffffffffffffffff169050919050565b60006105b2610b52565b90508073ffffffffffffffffffffffffffffffffffffffff168673ffffffffffffffffffffffffffffffffffffffff16141580156105f757506105f58682610892565b155b1561063b5780866040517fe237d9220000000000000000000000000000000000000000000000000000000081526004016106329291906124ba565b60405180910390fd5b6106488686868686610b5a565b505050505050565b6060815183511461069c57815183516040517f5b0599910000000000000000000000000000000000000000000000000000000081526004016106939291906124e3565b60405180910390fd5b6000835167ffffffffffffffff8111156106b9576106b8611c13565b5b6040519080825280602002602001820160405280156106e75781602001602082028036833780820191505090505b50905060005b84518110156107545761072461070c8287610c5290919063ffffffff16565b61071f8387610c6690919063ffffffff16565b61034a565b8282815181106107375761073661250c565b5b6020026020010181815250508061074d9061256a565b90506106ed565b508091505092915050565b610767610c7a565b6107716000610d01565b565b6000600560009054906101000a900473ffffffffffffffffffffffffffffffffffffffff16905090565b6107af6107a8610b52565b8383610dc7565b5050565b6000600660008154809291906107c89061256a565b91905055506107eb83600654600160405180602001604052806000815250610f37565b6107f760065483610fd0565b8260076000600654815260200190815260200160002060006101000a81548173ffffffffffffffffffffffffffffffffffffffff021916908373ffffffffffffffffffffffffffffffffffffffff1602179055506006547f91f8d55b7259beff3bf12ad5f466251c1e64094649979ddb015f2e17f2504438848460405161087f9291906125b2565b60405180910390a2600654905092915050565b6000600160008473ffffffffffffffffffffffffffffffffffffffff1673ffffffffffffffffffffffffffffffffffffffff16815260200190815260200160002060008373ffffffffffffffffffffffffffffffffffffffff1673ffffffffffffffffffffffffffffffffffffffff16815260200190815260200160002060009054906101000a900460ff16905092915050565b6000610930610b52565b90508073ffffffffffffffffffffffffffffffffffffffff168673ffffffffffffffffffffffffffffffffffffffff161415801561097557506109738682610892565b155b156109b95780866040517fe237d9220000000000000000000000000000000000000000000000000000000081526004016109b09291906124ba565b60405180910390fd5b6109c68686868686611035565b505050505050565b6109d6610c7a565b600073ffffffffffffffffffffffffffffffffffffffff168173ffffffffffffffffffffffffffffffffffffffff1603610a485760006040517f1e4fbdf7000000000000000000000000000000000000000000000000000000008152600401610a3f9190611bf3565b60405180910390fd5b610a5181610d01565b50565b60007f01ffc9a7000000000000000000000000000000000000000000000000000000007bffffffffffffffffffffffffffffffffffffffffffffffffffffffff1916827bffffffffffffffffffffffffffffffffffffffffffffffffffffffff1916149050919050565b606060028054610acd90612391565b80601f0160208091040260200160405190810160405280929190818152602001828054610af990612391565b8015610b465780601f10610b1b57610100808354040283529160200191610b46565b820191906000526020600020905b815481529060010190602001808311610b2957829003601f168201915b50505050509050919050565b600033905090565b600073ffffffffffffffffffffffffffffffffffffffff168473ffffffffffffffffffffffffffffffffffffffff1603610bcc5760006040517f57f447ce000000000000000000000000000000000000000000000000000000008152600401610bc39190611bf3565b60405180910390fd5b600073ffffffffffffffffffffffffffffffffffffffff168573ffffffffffffffffffffffffffffffffffffffff1603610c3e5760006040517f01a83514000000000000000000000000000000000000000000000000000000008152600401610c359190611bf3565b60405180910390fd5b610c4b8585858585611140565b5050505050565b600060208202602084010151905092915050565b600060208202602084010151905092915050565b610c82610b52565b73ffffffffffffffffffffffffffffffffffffffff16610ca0610773565b73ffffffffffffffffffffffffffffffffffffffff1614610cff57610cc3610b52565b6040517f118cdaa7000000000000000000000000000000000000000000000000000000008152600401610cf69190611bf3565b60405180910390fd5b565b6000600560009054906101000a900473ffffffffffffffffffffffffffffffffffffffff16905081600560006101000a81548173ffffffffffffffffffffffffffffffffffffffff021916908373ffffffffffffffffffffffffffffffffffffffff1602179055508173ffffffffffffffffffffffffffffffffffffffff168173ffffffffffffffffffffffffffffffffffffffff167f8be0079c531659141344cd1fd0a4f28419497f9722a3daafe3b4186f6b6457e060405160405180910390a35050565b600073ffffffffffffffffffffffffffffffffffffffff168273ffffffffffffffffffffffffffffffffffffffff1603610e395760006040517fced3e100000000000000000000000000000000000000000000000000000000008152600401610e309190611bf3565b60405180910390fd5b80600160008573ffffffffffffffffffffffffffffffffffffffff1673ffffffffffffffffffffffffffffffffffffffff16815260200190815260200160002060008473ffffffffffffffffffffffffffffffffffffffff1673ffffffffffffffffffffffffffffffffffffffff16815260200190815260200160002060006101000a81548160ff0219169083151502179055508173ffffffffffffffffffffffffffffffffffffffff168373ffffffffffffffffffffffffffffffffffffffff167f17307eab39ab6107e8899845ad3d59bd9653f200f220920489ca2b5937696c3183604051610f2a9190611aea565b60405180910390a3505050565b600073ffffffffffffffffffffffffffffffffffffffff168473ffffffffffffffffffffffffffffffffffffffff1603610fa95760006040517f57f447ce000000000000000000000000000000000000000000000000000000008152600401610fa09190611bf3565b60405180910390fd5b600080610fb685856111f2565b91509150610fc8600087848487611140565b505050505050565b80600460008481526020019081526020016000209081610ff09190612779565b50817f6bb7ff708619ba0610cba295a58592e0451dee2622938c8755667688daf3529b61101c84610486565b6040516110299190611bc2565b60405180910390a25050565b600073ffffffffffffffffffffffffffffffffffffffff168473ffffffffffffffffffffffffffffffffffffffff16036110a75760006040517f57f447ce00000000000000000000000000000000000000000000000000000000815260040161109e9190611bf3565b60405180910390fd5b600073ffffffffffffffffffffffffffffffffffffffff168573ffffffffffffffffffffffffffffffffffffffff16036111195760006040517f01a835140000000000000000000000000000000000000000000000000000000081526004016111109190611bf3565b60405180910390fd5b60008061112685856111f2565b915091506111378787848487611140565b50505050505050565b61114c85858585611222565b600073ffffffffffffffffffffffffffffffffffffffff168473ffffffffffffffffffffffffffffffffffffffff16146111eb57600061118a610b52565b905060018451036111da5760006111ab600086610c6690919063ffffffff16565b905060006111c3600086610c6690919063ffffffff16565b90506111d38389898585896115d0565b50506111e9565b6111e8818787878787611784565b5b505b5050505050565b60608060405191506001825283602083015260408201905060018152826020820152604081016040529250929050565b805182511461126c57815181516040517f5b0599910000000000000000000000000000000000000000000000000000000081526004016112639291906124e3565b60405180910390fd5b6000611276610b52565b905060005b835181101561148b5760006112998286610c6690919063ffffffff16565b905060006112b08386610c6690919063ffffffff16565b9050600073ffffffffffffffffffffffffffffffffffffffff168873ffffffffffffffffffffffffffffffffffffffff16146113dd57600080600084815260200190815260200160002060008a73ffffffffffffffffffffffffffffffffffffffff1673ffffffffffffffffffffffffffffffffffffffff1681526020019081526020016000205490508181101561138557888183856040517f03dee4c500000000000000000000000000000000000000000000000000000000815260040161137c949392919061284b565b60405180910390fd5b81810360008085815260200190815260200160002060008b73ffffffffffffffffffffffffffffffffffffffff1673ffffffffffffffffffffffffffffffffffffffff16815260200190815260200160002081905550505b600073ffffffffffffffffffffffffffffffffffffffff168773ffffffffffffffffffffffffffffffffffffffff1614611478578060008084815260200190815260200160002060008973ffffffffffffffffffffffffffffffffffffffff1673ffffffffffffffffffffffffffffffffffffffff16815260200190815260200160002060008282546114709190612890565b925050819055505b5050806114849061256a565b905061127b565b50600183510361154a5760006114ab600085610c6690919063ffffffff16565b905060006114c3600085610c6690919063ffffffff16565b90508573ffffffffffffffffffffffffffffffffffffffff168773ffffffffffffffffffffffffffffffffffffffff168473ffffffffffffffffffffffffffffffffffffffff167fc3d58168c5ae7397731d063d5bbf3d657854427343f4c083240f7aacaa2d0f62858560405161153b9291906124e3565b60405180910390a450506115c9565b8373ffffffffffffffffffffffffffffffffffffffff168573ffffffffffffffffffffffffffffffffffffffff168273ffffffffffffffffffffffffffffffffffffffff167f4a39dc06d4c0dbc64b70af90fd698a233a518aa5d07e595d983b8c0526c8f7fb86866040516115c09291906128c4565b60405180910390a45b5050505050565b60008473ffffffffffffffffffffffffffffffffffffffff163b111561177c578373ffffffffffffffffffffffffffffffffffffffff1663f23a6e6187878686866040518663ffffffff1660e01b8152600401611631959493929190612950565b6020604051808303816000875af192505050801561166d57506040513d601f19601f8201168201806040525081019061166a91906129bf565b60015b6116f1573d806000811461169d576040519150601f19603f3d011682016040523d82523d6000602084013e6116a2565b606091505b5060008151036116e957846040517f57f447ce0000000000000000000000000000000000000000000000000000000081526004016116e09190611bf3565b60405180910390fd5b805181602001fd5b63f23a6e6160e01b7bffffffffffffffffffffffffffffffffffffffffffffffffffffffff1916817bffffffffffffffffffffffffffffffffffffffffffffffffffffffff19161461177a57846040517f57f447ce0000000000000000000000000000000000000000000000000000000081526004016117719190611bf3565b60405180910390fd5b505b505050505050565b60008473ffffffffffffffffffffffffffffffffffffffff163b1115611930578373ffffffffffffffffffffffffffffffffffffffff1663bc197c8187878686866040518663ffffffff1660e01b81526004016117e59594939291906129ec565b6020604051808303816000875af192505050801561182157506040513d601f19601f8201168201806040525081019061181e91906129bf565b60015b6118a5573d8060008114611851576040519150601f19603f3d011682016040523d82523d6000602084013e611856565b606091505b50600081510361189d57846040517f57f447ce0000000000000000000000000000000000000000000000000000000081526004016118949190611bf3565b60405180910390fd5b805181602001fd5b63bc197c8160e01b7bffffffffffffffffffffffffffffffffffffffffffffffffffffffff1916817bffffffffffffffffffffffffffffffffffffffffffffffffffffffff19161461192e57846040517f57f447ce0000000000000000000000000000000000000000000000000000000081526004016119259190611bf3565b60405180910390fd5b505b505050505050565b6000604051905090565b600080fd5b600080fd5b600073ffffffffffffffffffffffffffffffffffffffff82169050919050565b60006119778261194c565b9050919050565b6119878161196c565b811461199257600080fd5b50565b6000813590506119a48161197e565b92915050565b6000819050919050565b6119bd816119aa565b81146119c857600080fd5b50565b6000813590506119da816119b4565b92915050565b600080604083850312156119f7576119f6611942565b5b6000611a0585828601611995565b9250506020611a16858286016119cb565b9150509250929050565b611a29816119aa565b82525050565b6000602082019050611a446000830184611a20565b92915050565b60007fffffffff0000000000000000000000000000000000000000000000000000000082169050919050565b611a7f81611a4a565b8114611a8a57600080fd5b50565b600081359050611a9c81611a76565b92915050565b600060208284031215611ab857611ab7611942565b5b6000611ac684828501611a8d565b91505092915050565b60008115159050919050565b611ae481611acf565b82525050565b6000602082019050611aff6000830184611adb565b92915050565b600060208284031215611b1b57611b1a611942565b5b6000611b29848285016119cb565b91505092915050565b600081519050919050565b600082825260208201905092915050565b60005b83811015611b6c578082015181840152602081019050611b51565b60008484015250505050565b6000601f19601f8301169050919050565b6000611b9482611b32565b611b9e8185611b3d565b9350611bae818560208601611b4e565b611bb781611b78565b840191505092915050565b60006020820190508181036000830152611bdc8184611b89565b905092915050565b611bed8161196c565b82525050565b6000602082019050611c086000830184611be4565b92915050565b600080fd5b7f4e487b7100000000000000000000000000000000000000000000000000000000600052604160045260246000fd5b611c4b82611b78565b810181811067ffffffffffffffff82111715611c6a57611c69611c13565b5b80604052505050565b6000611c7d611938565b9050611c898282611c42565b919050565b600067ffffffffffffffff821115611ca957611ca8611c13565b5b602082029050602081019050919050565b600080fd5b6000611cd2611ccd84611c8e565b611c73565b90508083825260208201905060208402830185811115611cf557611cf4611cba565b5b835b81811015611d1e5780611d0a88826119cb565b845260208401935050602081019050611cf7565b5050509392505050565b600082601f830112611d3d57611d3c611c0e565b5b8135611d4d848260208601611cbf565b91505092915050565b600080fd5b600067ffffffffffffffff821115611d7657611d75611c13565b5b611d7f82611b78565b9050602081019050919050565b82818337600083830152505050565b6000611dae611da984611d5b565b611c73565b905082815260208101848484011115611dca57611dc9611d56565b5b611dd5848285611d8c565b509392505050565b600082601f830112611df257611df1611c0e565b5b8135611e02848260208601611d9b565b91505092915050565b600080600080600060a08688031215611e2757611e26611942565b5b6000611e3588828901611995565b9550506020611e4688828901611995565b945050604086013567ffffffffffffffff811115611e6757611e66611947565b5b611e7388828901611d28565b935050606086013567ffffffffffffffff811115611e9457611e93611947565b5b611ea088828901611d28565b925050608086013567ffffffffffffffff811115611ec157611ec0611947565b5b611ecd88828901611ddd565b9150509295509295909350565b600067ffffffffffffffff821115611ef557611ef4611c13565b5b602082029050602081019050919050565b6000611f19611f1484611eda565b611c73565b90508083825260208201905060208402830185811115611f3c57611f3b611cba565b5b835b81811015611f655780611f518882611995565b845260208401935050602081019050611f3e565b5050509392505050565b600082601f830112611f8457611f83611c0e565b5b8135611f94848260208601611f06565b91505092915050565b60008060408385031215611fb457611fb3611942565b5b600083013567ffffffffffffffff811115611fd257611fd1611947565b5b611fde85828601611f6f565b925050602083013567ffffffffffffffff811115611fff57611ffe611947565b5b61200b85828601611d28565b9150509250929050565b600081519050919050565b600082825260208201905092915050565b6000819050602082019050919050565b61204a816119aa565b82525050565b600061205c8383612041565b60208301905092915050565b6000602082019050919050565b600061208082612015565b61208a8185612020565b935061209583612031565b8060005b838110156120c65781516120ad8882612050565b97506120b883612068565b925050600181019050612099565b5085935050505092915050565b600060208201905081810360008301526120ed8184612075565b905092915050565b6120fe81611acf565b811461210957600080fd5b50565b60008135905061211b816120f5565b92915050565b6000806040838503121561213857612137611942565b5b600061214685828601611995565b92505060206121578582860161210c565b9150509250929050565b600067ffffffffffffffff82111561217c5761217b611c13565b5b61218582611b78565b9050602081019050919050565b60006121a56121a084612161565b611c73565b9050828152602081018484840111156121c1576121c0611d56565b5b6121cc848285611d8c565b509392505050565b600082601f8301126121e9576121e8611c0e565b5b81356121f9848260208601612192565b91505092915050565b6000806040838503121561221957612218611942565b5b600061222785828601611995565b925050602083013567ffffffffffffffff81111561224857612247611947565b5b612254858286016121d4565b9150509250929050565b6000806040838503121561227557612274611942565b5b600061228385828601611995565b925050602061229485828601611995565b9150509250929050565b600080600080600060a086880312156122ba576122b9611942565b5b60006122c888828901611995565b95505060206122d988828901611995565b94505060406122ea888289016119cb565b93505060606122fb888289016119cb565b925050608086013567ffffffffffffffff81111561231c5761231b611947565b5b61232888828901611ddd565b9150509295509295909350565b60006020828403121561234b5761234a611942565b5b600061235984828501611995565b91505092915050565b7f4e487b7100000000000000000000000000000000000000000000000000000000600052602260045260246000fd5b600060028204905060018216806123a957607f821691505b6020821081036123bc576123bb612362565b5b50919050565b600081905092915050565b60008190508160005260206000209050919050565b600081546123ef81612391565b6123f981866123c2565b9450600182166000811461241457600181146124295761245c565b60ff198316865281151582028601935061245c565b612432856123cd565b60005b8381101561245457815481890152600182019150602081019050612435565b838801955050505b50505092915050565b600061247082611b32565b61247a81856123c2565b935061248a818560208601611b4e565b80840191505092915050565b60006124a282856123e2565b91506124ae8284612465565b91508190509392505050565b60006040820190506124cf6000830185611be4565b6124dc6020830184611be4565b9392505050565b60006040820190506124f86000830185611a20565b6125056020830184611a20565b9392505050565b7f4e487b7100000000000000000000000000000000000000000000000000000000600052603260045260246000fd5b7f4e487b7100000000000000000000000000000000000000000000000000000000600052601160045260246000fd5b6000612575826119aa565b91507fffffffffffffffffffffffffffffffffffffffffffffffffffffffffffffffff82036125a7576125a661253b565b5b600182019050919050565b60006040820190506125c76000830185611be4565b81810360208301526125d98184611b89565b90509392505050565b60006020601f8301049050919050565b600082821b905092915050565b60006008830261262f7fffffffffffffffffffffffffffffffffffffffffffffffffffffffffffffffff826125f2565b61263986836125f2565b95508019841693508086168417925050509392505050565b6000819050919050565b600061267661267161266c846119aa565b612651565b6119aa565b9050919050565b6000819050919050565b6126908361265b565b6126a461269c8261267d565b8484546125ff565b825550505050565b600090565b6126b96126ac565b6126c4818484612687565b505050565b5b818110156126e8576126dd6000826126b1565b6001810190506126ca565b5050565b601f82111561272d576126fe816123cd565b612707846125e2565b81016020851015612716578190505b61272a612722856125e2565b8301826126c9565b50505b505050565b600082821c905092915050565b600061275060001984600802612732565b1980831691505092915050565b6000612769838361273f565b9150826002028217905092915050565b61278282611b32565b67ffffffffffffffff81111561279b5761279a611c13565b5b6127a58254612391565b6127b08282856126ec565b600060209050601f8311600181146127e357600084156127d1578287015190505b6127db858261275d565b865550612843565b601f1984166127f1866123cd565b60005b82811015612819578489015182556001820191506020850194506020810190506127f4565b868310156128365784890151612832601f89168261273f565b8355505b6001600288020188555050505b505050505050565b60006080820190506128606000830187611be4565b61286d6020830186611a20565b61287a6040830185611a20565b6128876060830184611a20565b95945050505050565b600061289b826119aa565b91506128a6836119aa565b92508282019050808211156128be576128bd61253b565b5b92915050565b600060408201905081810360008301526128de8185612075565b905081810360208301526128f28184612075565b90509392505050565b600081519050919050565b600082825260208201905092915050565b6000612922826128fb565b61292c8185612906565b935061293c818560208601611b4e565b61294581611b78565b840191505092915050565b600060a0820190506129656000830188611be4565b6129726020830187611be4565b61297f6040830186611a20565b61298c6060830185611a20565b818103608083015261299e8184612917565b90509695505050505050565b6000815190506129b981611a76565b92915050565b6000602082840312156129d5576129d4611942565b5b60006129e3848285016129aa565b91505092915050565b600060a082019050612a016000830188611be4565b612a0e6020830187611be4565b8181036040830152612a208186612075565b90508181036060830152612a348185612075565b90508181036080830152612a488184612917565b9050969550505050505056fea2646970667358221220aead1fcbab66dc2a1d711c1987268fc6366c0a509265f052378e6619e81c169c64736f6c63430008140033",
  "linkReferences": {},
  "deployedLinkReferences": {}
}